:020000040000FA
:0400000007EF00F016
:0A000800738265ED0EF0EDEF0DF0D0
:0D1000000048656C6C6F6F200025640000D7
:10100E0020C038F021C039F022C03AF023C03BF0A6
:10101E0024C03CF025C03DF026C03EF027C03FF076
:10102E003FBE1CEF08F01FEF08F0010E20EF08F096
:10103E00000E366E376A36503710D8B429EF08F0E6
:10104E002BEF08F03BEF08F03F1E3E1E3D1E3C1EF0
:10105E003B1E3A1E391E386C000E39223A223B22B4
:10106E003C223D223E223F226DBE40EF08F042EF71
:10107E0008F043EF08F06E926DBE50EF08F06D5021
:10108E0006E16C04D8B04EEF08F050EF08F056EFC2
:10109E0008F0000E336E010E326E5AEF08F06CC07F
:1010AE0032F06DC033F06AC034F06BC035F036509C
:1010BE003710D8A465EF08F067EF08F06EEF08F070
:1010CE006EA46CEF08F06EEF08F071EF08F03406C6
:1010DE00D8A03506000E416E1F0E406E000E0001A8
:1010EE00C76FF6EF08F04006D8A04106A80E4024C0
:1010FE00D96E000E4120DA6E38C003F039C004F00C
:10110E003AC005F03BC006F03CC007F03DC008F009
:10111E003EC009F03FC00AF00A0E0B6E000E0C6EB8
:10112E00000E0D6E000E0E6E000E0F6E000E106E87
:10113E00000E116E000E126E13EC0BF003C028F0B1
:10114E0004C029F005C02AF006C02BF007C02CF011
:10115E0008C02DF009C02EF00AC02FF028C015F0DF
:10116E002AC016F087EC0EF01550300FDF6E3206E7
:10117E00D8A033063406D8A0350638C003F039C0DF
:10118E0004F03AC005F03BC006F03CC007F03DC08D
:10119E0008F03EC009F03FC00AF00A0E0B6E000EBA
:1011AE000C6E000E0D6E000E0E6E000E0F6E000E0B
:1011BE00106E000E116E000E126E4FEC0AF003C090
:1011CE0038F004C039F005C03AF006C03BF007C055
:1011DE003CF008C03DF009C03EF00AC03FF041BEF1
:1011EE0001EF09F0415008E14004D8A001EF09F0E9
:1011FE0003EF09F033EF09F0385039103A103B1075
:10120E003C103D103E103F10D8A410EF09F012EF25
:10121E0009F07AEF08F033BE1FEF09F0335006E104
:10122E003204D8B01DEF09F01FEF09F07AEF08F085
:10123E0035BE2AEF09F0355008E13404D8A02AEF64
:10124E0009F02CEF09F033EF09F06EB231EF09F02F
:10125E0033EF09F07AEF08F036503710D8A43AEF92
:10126E0009F03CEF09F043EF09F06EA441EF09F0ED
:10127E0043EF09F061EF09F04006D8A04106365061
:10128E003710D8A44DEF09F04FEF09F055EF09F0E4
:10129E00000E316E2B0E306E59EF09F0000E316ECE
:1012AE002D0E306EA80E4024D96E000E4120DA6E3F
:1012BE0030C0DFFF1EC013F01FC014F0A80E402474
:1012CE00156E000E4120166E34C017F035C018F0A2
:1012DE002AEC0CF013C01EF014C01FF0120044C014
:1012EE00D9FF45C0DAFFDECFF6FFDDCFF7FF0800EE
:1012FE00F550250AD8A486EF09F088EF09F033EFF0
:10130E000AF044C0D9FF45C0DAFFDE2A000EDD2206
:10131E00000E6B6E000E6A6E6AC06EF06BC06FF0E0
:10132E006C686D6844C0D9FF45C0DAFFDECFF6FFAA
:10133E00DDCFF7FF0800F550640AD8B4A9EF09F025
:10134E00ABEF09F0BDEF09F044C0D9FF45C0DAFF9D
:10135E00DECFF6FFDDCFF7FF0800F550690AD8A4FF
:10136E00BBEF09F0BDEF09F0FDEF09F044C0D9FF66
:10137E0045C0DAFFDE2A000EDD2246C0D9FF47C087
:10138E00DAFFDFCF48F0020EDE26DFCF49F0000E87
:10139E00DD2248C0D9FF49C0DAFFDECF4AF0DDCFEB
:1013AE004BF0000E4BBEFF0E4C6E4D6E4E6E4F6EE2
:1013BE00506E516E42C01EF043C01FF04AC020F066
:1013CE004BC021F04CC022F04DC023F04EC024F093
:1013DE004FC025F050C026F051C027F007EC08F0A2
:1013EE001EC042F01FC043F04EEF0AF044C0D9FFBA
:1013FE0045C0DAFFDECFF6FFDDCFF7FF0800F55070
:10140E00250AD8A40DEF0AF00FEF0AF026EF0AF026
:10141E0044C0D9FF45C0DAFFDE2A000EDD22000EE1
:10142E00046E250E036E42C005F043C006F0C5ECF7
:10143E000BF0000E436E010E426E4EEF0AF044C0EA
:10144E00D9FF45C0DAFFDE2A000EDD22000E436E04
:10145E00000E426E4EEF0AF044C0D9FF45C0DAFFCF
:10146E00DECFF6FFDDCFF7FF0800F550036E046AFE
:10147E0042C005F043C006F0C5EC0BF044C0D9FFE6
:10148E0045C0DAFFDE2A000EDD2220EF0AF0120040
:10149E00000E146E12BE58EF0AF056EF0AF06AEF05
:1014AE000AF0121E111E101E0F1E0E1E0D1E0C1EF9
:1014BE000B6C000E0C220D220E220F221022112276
:1014CE001222010E146E0ABE71EF0AF06FEF0AF0CF
:1014DE0083EF0AF00A1E091E081E071E061E051EB1
:1014EE00041E036C000E0422052206220722082287
:1014FE0009220A22010E141A20EE15F0070EDE6ADA
:10150E00E806FDE20B500C100D100E100F1010100F
:10151E0011101210D8B496EF0AF098EF0AF0EAEF15
:10152E000AF0010E136EA6EF0AF0D8900B360C36A9
:10153E000D360E360F36103611361236132A12AEFF
:10154E00ABEF0AF0ADEF0AF09CEF0AF0D89015362B
:10155E0016361736183619361A361B361C360B50F9
:10156E00035C0C5004580D5005580E5006580F5081
:10157E000758105008581150095812500A58D8A040
:10158E00CBEF0AF0CDEF0AF0DEEF0AF00B50035E60
:10159E000C50045A0D50055A0E50065A0F50075A49
:1015AE001050085A1150095A12500A5A1580D890E4
:1015BE001232113210320F320E320D320C320B3219
:1015CE00132EADEF0AF01450D8B4F0EF0AF0F2EF8C
:1015DE000AF002EF0BF01C1E1B1E1A1E191E181EFF
:1015EE00171E161E156C000E16221722182219220F
:1015FE001A221B221C2215C003F016C004F017C0BD
:10160E0005F018C006F019C007F01AC008F01BC08C
:10161E0009F01CC00AF01200000E146E0ABE1CEF78
:10162E000BF01AEF0BF02EEF0BF00A1E091E081E20
:10163E00071E061E051E041E036C000E0422052244
:10164E0006220722082209220A22010E146E12BE59
:10165E0035EF0BF033EF0BF045EF0BF0121E111EB2
:10166E00101E0F1E0E1E0D1E0C1E0B6C000E0C22DD
:10167E000D220E220F221022112212220B500C10BC
:10168E000D100E100F10101011101210D8B452EFC2
:10169E000BF054EF0BF09CEF0BF0010E136E62EF9C
:1016AE000BF0D8900B360C360D360E360F36103634
:1016BE0011361236132A12AE67EF0BF069EF0BF0EC
:1016CE0058EF0BF00B50035C0C5004580D5005589E
:1016DE000E5006580F500758105008581150095800
:1016EE0012500A58D8A07EEF0BF080EF0BF090EF5F
:1016FE000BF00B50035E0C50045A0D50055A0E5051
:10170E00065A0F50075A1050085A1150095A1250C3
:10171E000A5AD8901232113210320F320E320D3266
:10172E000C320B32132E69EF0BF01450D8B4A2EF1B
:10173E000BF0A4EF0BF0B4EF0BF00A1E091E081EFF
:10174E00071E061E051E041E036C000E0422052233
:10175E0006220722082209220A2203C003F004C02F
:10176E0004F005C005F006C006F007C007F008C07B
:10177E0008F009C009F00AC00AF012000550061060
:10178E00D8B4CCEF0BF0CEEF0BF0D7EF0BF005503B
:10179E000610D8A4D5EF0BF0D7EF0BF0DCEF0BF063
:1017AE0003503FEC0FF029EF0CF020EE04F0055043
:1017BE00D9260650DA22DE50DE10D8B4E9EF0BF04F
:1017CE00EBEF0BF006EF0CF020EE04F00550D926EF
:1017DE000650DA2210EE02F00550E1260650E22203
:1017EE00DE50E65CE650800A0B6EDE50800A0B5827
:1017FE00D8B004EF0CF006EF0CF029EF0CF020EE51
:10180E0002F00550D9260650DA22DECF07F0DDCFE2
:10181E0008F005C0D9FF06C0DAFFDECF09F0DDCF34
:10182E000AF007500924D96E08500A20DA6E03C058
:10183E00DFFF20EE02F00550D9260650DA22DE2A0E
:10184E00000EDD2212006EA02FEF0CF031EF0CF027
:10185E003BEF0CF015C00CF016C00DF013C00EF0DF
:10186E0014C00FF043EC0EF018BE40EF0CF042EF38
:10187E000CF048EF0CF017C01CF018C01DF04CEF28
:10188E000CF0000E1D6E000E1C6E000E1B6E000E78
:10189E001A6E5EEF0CF0000E046E200E036E13C077
:1018AE0005F014C006F0C5EC0BF01A4A1B2A1C50AA
:1018BE001A5C1B50800A196E1D50800A1958D8A048
:1018CE006BEF0CF06DEF0CF052EF0CF06EB072EFA0
:1018DE000CF074EF0CF07EEF0CF015C00CF016C08F
:1018EE000DF013C00EF014C00FF043EC0EF015C047
:1018FE0003F016C004F0C3EC0EF01C500324136E5C
:10190E001D500420146E1200000E096EC1EF0CF073
:10191E0009500524076E000E0620086E07C0F6FF5C
:10192E0008C0F7FF000EF86E0F0EF76403D0080024
:10193E00F55005D0F6CFE1FFF7CFE2FFE750DEEC32
:10194E000EF0722A110E7218D8A4B0EF0CF0B2EF8E
:10195E000CF0C0EF0CF0010E726E712A050E7118AC
:10196E00D8A4BCEF0CF0BEEF0CF0C0EF0CF0010EE3
:10197E00716E092A09500524076E000E0620086EA6
:10198E0007C0F6FF08C0F7FF000EF86E0F0EF764E3
:10199E0003D00800F55005D0F6CFE1FFF7CFE2FFF8
:1019AE00E7500009D8A4DEEF0CF0E0EF0CF08FEF5B
:1019BE000CF0120028EC0FF0F7EC0EF0010E056E95
:1019CE00100E066E8BEC0CF0D40E056E000E066E2D
:1019DE00000EA7EC0EF0010E056E080E82EC0DF057
:1019EE00000EDEEC0EF020EEC8F0090EDE6AE80600
:1019FE00FDE29380F288F292F28EF28C7004D8A4FB
:101A0E000BEF0DF00DEF0DF005EF0DF0000E36ECB7
:101A1E000DF003C0D2F004C0D3F0C80E5A6E000E03
:101A2E005B6E090E5C6E100E5D6ED2C05EF0D3C0A2
:101A3E005FF01CEC0EF0010E10EC0FF0020E056EB6
:101A4E00050E82EC0DF0C80E056E000E066E8BECC8
:101A5E000CF0000E706E05EF0DF007EF00F0076E44
:101A6E0007C005F0010E051605460546C2500518BD
:101A7E00FB0B0518C26E07C005F0D8900532010E9B
:101A8E000516054605460546C2500518F70B0518FE
:101A9E00C26E07C005F0D8900532D8900532010EFF
:101AAE000516053AC2500518EF0B0518C26E07C091
:101ABE0005F0D8900532D8900532D8900532010E37
:101ACE000516053A0546C2500518DF0B0518C26EFD
:101ADE00C282C2B275EF0DF077EF0DF070EF0DF020
:101AEE009E9CC450066E056AC3500524036E000EFC
:101AFE000620046E1200066E0504D8A489EF0DF0C0
:101B0E008BEF0DF092EF0DF006040F0B800F10EC23
:101B1E000FF0B7EF0DF0020E0518D8A499EF0DF0E7
:101B2E009BEF0DF0A2EF0DF006040F0BC00F10ECA3
:101B3E000FF0B7EF0DF0030E0518D8A4A9EF0DF0B6
:101B4E00ABEF0DF0B2EF0DF006040F0B900F10EC93
:101B5E000FF0B7EF0DF006040F0BD00F10EC0FF0D7
:101B6E0006C072F005C071F0120054C058F055C096
:101B7E0059F0000E0001A76F000EA66FDAEF0DF000
:101B8E0052C042F053C043F0580E446E000E456EE4
:101B9E0056C046F057C047F076EC09F042500001AF
:101BAE00A6274350A72358C0F6FF59C0F7FF0800D9
:101BBE00F5500009D8A4E6EF0DF0E8EF0DF0C7EFF1
:101BCE000DF0A6C052F0A7C053F01200740EF66EC0
:101BDE001E0EF76E000EF86E00EED4F010EE08F04A
:101BEE000900F5CFEEFFE550E150FAE17C0EF66EFE
:101BFE001E0EF76E000EF86E0900F5CF71F009009B
:101C0E00F5CF72F000EE80F0480EEE6AE806FDE1C8
:101C1E0000EE6AF0070EEE6AE806FDE1739073922D
:101C2E00000EF86E0001E1EF0CF05E0E626E000E1B
:101C3E00636E5AC064F05BC065F0000E676E000EF6
:101C4E00666E000E696E000E686E640E526E000EA9
:101C5E00536E5CC054F05DC055F0620E566E000EB1
:101C6E00576EBCEC0DF066505A24D96E67505B204F
:101C7E00DA6E000EDF6E1200000E126E000E116E86
:101C8E0054EF0EF010C003F0046A0EC005F00FC042
:101C9E0006F0C5EC0BF0114A122A11500C24D96E25
:101CAE0012500D20DA6EDF50106E1050D8A462EF75
:101CBE000EF064EF0EF049EF0EF012000600F2A2E5
:101CCE006BEF0EF06DEF0EF072EF0EF0010E706E08
:101CDE00F29285EF0EF0F0A077EF0EF079EF0EF0A6
:101CEE0085EF0EF0010E00019425016E000E952178
:101CFE00026E030E0114946F956BF09073921100A7
:101D0E0016BE94EF0EF0165006E11504D8B092EF01
:101D1E000EF094EF0EF0A2EF0EF015C017F016C0F5
:101D2E0018F0171E181E174A182A17C015F018C0DB
:101D3E0016F0A6EF0EF015C015F016C016F0120034
:101D4E00076E0750080DF350400F10EC0FF0000E09
:101D5E00086E08500524D96E000E0620DA6EDF508C
:101D6E00DEEC0EF0082A070E0864C0EF0EF0C2EF8C
:101D7E000EF0B0EF0EF0120003C005F004C006F036
:101D8E00CBEF0EF0034A042A03C0D9FF04C0DAFFDA
:101D9E00DF50D8A4D5EF0EF0D7EF0EF0C9EF0EF04E
:101DAE000550035C036E06500458046E1200046E58
:101DBE008492848404C083FF84821A0E036EF80E0C
:101DCE00E82EFED7032EFCD700D084921A0E036E97
:101DDE00F80EE82EFED7032EFCD700D08494120006
:101DEE0096929694000E956E84928494380E10EC12
:101DFE000FF0080E10EC0FF00C0E10EC0FF0060E9C
:101E0E0010EC0FF0010E10EC0FF0800E10EC0FF036
:101E1E001200046E8492849404C083FF84821A0E8E
:101E2E00036EF80EE82EFED7032EFCD700D0849258
:101E3E001A0E036EF80EE82EFED7032EFCD700D036
:101E4E001200C186C184C192C190C198C19A92807C
:101E5E0092829294C094C082C090C09AC088C0965C
:101E6E00C08EC280120000000A1F1F0E0400010166
:021E7E00120050
:020000040020DA
:08000000FFFFFFFFFFFFFFFF00
:020000040030CA
:0E000000FF081F1EFF8381FF0FC00FE00F409F
:00000001FF
