:020000040000FA
:0400000007EF00F016
:0A0008007F8222ED08F084EF0FF074
:10100000005570646174696E6720706C61796572F7
:1010100020706F736974696F6E2066726F6D20281F
:1010200025642C2025642920746F202825642C2019
:101030002564290A00557020627574746F6E212131
:031040000A0000A3
:101044000600E1CFD2F0E2CFD3F0D9CFD4F0DACF9B
:10105400D5F0F3CFD6F0F4CFD7F0F6CFD8F0F7CF62
:10106400D9F0F8CFDAF0F5CFDBF0F2A43CEF08F0DA
:101074003EEF08F094EF08F0F294000ED76E640E81
:10108400D66E69EF08F0000E926E9C0E9625D96E0E
:10109400000E9721DA6EDF50836E080E806E84EFA7
:1010A40008F0000E926E7CC083FF100E896E84EFF0
:1010B40008F0000E926E9C0E9825D96E000E9921B0
:1010C400DA6EDF50836E200E896E84EF08F07AC0EA
:1010D400CEF07BC0CFF00001CF51000AD8B475EF39
:1010E40008F084EF08F0CE51000AD8B445EF08F0B8
:1010F400010AD8B453EF08F0030AD8B45BEF08F040
:1011040084EF08F0010E7A24016E000E7B20026E3B
:10111400000E046E030E036E45EC0EF001C07AF06F
:1011240002C07BF0F2A299EF08F09BEF08F09FEF6A
:1011340008F0010E0001E66FF292F2A0A4EF08F0AD
:10114400A6EF08F08DEF09F0800E0001CE6F000EBF
:10115400CF6FD8909435D96E9535DA6ED890D9364C
:10116400DA36CE51D926CF51DA22DECF72F0DDCF76
:1011740073F0800ECE6F000ECF6F020ECE27000EDE
:10118400CF23D8909435D96E9535DA6ED890D93668
:10119400DA36CE51D926CF51DA22DECF74F0DDCF44
:1011A40075F081A8D8EF08F0DAEF08F0FAEF08F04C
:1011B400350E586E100E596EB4EC11F0800E00010D
:1011C400CE6F000ECF6F020ECE27000ECF23D89025
:1011D4009435D96E9535DA6ED890D936DA36CE5143
:1011E400D926CF51DA22DE06000EDD5A52EF09F07D
:1011F40081AAFFEF08F001EF09F01AEF09F0800E61
:10120400CE6F000ECF6F020ECE27000ECF23D890E4
:101214009435D96E9535DA6ED890D936DA36CE5102
:10122400D926CF51DA22DE2A000EDD2252EF09F050
:1012340081AC1FEF09F021EF09F036EF09F0800EC1
:10124400CE6F000ECF6FD8909435D96E9535DA6E87
:10125400D890D936DA36CE51D926CF51DA22DE06E5
:10126400000EDD5A52EF09F081AE3BEF09F03DEF7D
:1012740009F052EF09F0800ECE6F000ECF6FD890B8
:101284009435D96E9535DA6ED890D936DA36CE5192
:10129400D926CF51DA22DE2A000EDD2252EF09F0E0
:1012A40072C066F073C067F074C068F075C069F00E
:1012B400800ECE6F000ECF6FD8909435D96E9535D1
:1012C400DA6ED890D936DA36CE51D926CF51DA2211
:1012D400DECF6AF0DDCF6BF0800ED06F000ED16FE1
:1012E400020ED027000ED123D8909435D96E9535AF
:1012F400DA6ED890D936DA36D051D926D151DA22DD
:10130400DECF6CF0DDCF6DF094C06EF095C06FF061
:10131400ECEC0EF0F290DBC0F5FFDAC0F8FFD9C0B8
:10132400F7FFD8C0F6FFD7C0F4FFD6C0F3FFD5C08F
:10133400DAFFD4C0D9FFD3C0E2FFD2C0E1FF7F926D
:1013440011001EC036F01FC037F020C038F021C095
:1013540039F022C03AF023C03BF024C03CF025C051
:101364003DF03DBEB8EF09F0BBEF09F0010EBCEF54
:1013740009F0000E346E356A34503510D8B4C5EF18
:1013840009F0C7EF09F0D7EF09F03D1E3C1E3B1EE4
:101394003A1E391E381E371E366C000E372238228C
:1013A40039223A223B223C223D2277BEDCEF09F06F
:1013B400DEEF09F0DFEF09F0789277BEECEF09F089
:1013C400775006E17604D8B0EAEF09F0ECEF09F0C3
:1013D400F2EF09F0000E316E010E306EF6EF09F0F7
:1013E40076C030F077C031F0E4C032F0E5C033F0BD
:1013F40034503510D8A401EF0AF003EF0AF00AEFD5
:101404000AF078A408EF0AF00AEF0AF00DEF0AF0E8
:101414003206D8A03306000E3F6E1F0E3E6E000E3D
:101424000101656F92EF0AF03E06D8A03F06460E12
:101434003E24D96E010E3F20DA6E36C001F037C06B
:1014440002F038C003F039C004F03AC005F03BC0E4
:1014540006F03CC007F03DC008F00A0E096E000E0D
:101464000A6E000E0B6E000E0C6E000E0D6E000E5A
:101474000E6E000E0F6E000E106EB0EC0CF001C07C
:1014840026F002C027F003C028F004C029F005C0EC
:101494002AF006C02BF007C02CF008C02DF026C09F
:1014A40013F028C014F0DCEC10F01350300FDF6E92
:1014B4003006D8A031063206D8A0330636C001F073
:1014C40037C002F038C003F039C004F03AC005F068
:1014D4003BC006F03CC007F03DC008F00A0E096EA0
:1014E400000E0A6E000E0B6E000E0C6E000E0D6EDA
:1014F400000E0E6E000E0F6E000E106EECEC0BF074
:1015040001C036F002C037F003C038F004C039F02F
:1015140005C03AF006C03BF007C03CF008C03DF0FF
:101524003FBE9DEF0AF03F5008E13E04D8A09DEF76
:101534000AF09FEF0AF0CFEF0AF036503710381058
:1015440039103A103B103C103D10D8A4ACEF0AF00F
:10155400AEEF0AF016EF0AF031BEBBEF0AF03150DD
:1015640006E13004D8B0B9EF0AF0BBEF0AF016EF89
:101574000AF033BEC6EF0AF0335008E13204D8A0B3
:10158400C6EF0AF0C8EF0AF0CFEF0AF078B2CDEF59
:101594000AF0CFEF0AF016EF0AF034503510D8A451
:1015A400D6EF0AF0D8EF0AF0DFEF0AF078A4DDEF07
:1015B4000AF0DFEF0AF0FDEF0AF03E06D8A03F067E
:1015C40034503510D8A4E9EF0AF0EBEF0AF0F1EF4C
:1015D4000AF0000E2F6E2B0E2E6EF5EF0AF0000EA1
:1015E4002F6E2D0E2E6E460E3E24D96E010E3F2018
:1015F400DA6E2EC0DFFF1CC011F01DC012F0460EC3
:101604003E24136E010E3F20146E32C015F033C019
:1016140016F0E4EC0DF011C01CF012C01DF0120025
:1016240042C0D9FF43C0DAFFDECFF6FFDDCFF7FFBC
:101634000800F550250AD8A422EF0BF024EF0BF094
:10164400D0EF0BF042C0D9FF43C0DAFFDE2A000E10
:10165400DD22000E0001E56F000EE46FE4C078F0B7
:10166400E5C079F07668776842C0D9FF43C0DAFFF5
:10167400DECFF6FFDDCFF7FF0800F550640AD8B4DB
:1016840046EF0BF048EF0BF05AEF0BF042C0D9FFD6
:1016940043C0DAFFDECFF6FFDDCFF7FF0800F550D9
:1016A400690AD8A458EF0BF05AEF0BF09AEF0BF03D
:1016B40042C0D9FF43C0DAFFDE2A000EDD2244C057
:1016C400D9FF45C0DAFFDFCF46F0020EDE26DFCFBA
:1016D40047F0000EDD2246C0D9FF47C0DAFFDECF57
:1016E40048F0DDCF49F0000E49BEFF0E4A6E4B6E46
:1016F4004C6E4D6E4E6E4F6E40C01CF041C01DF0DE
:1017040048C01EF049C01FF04AC020F04BC021F071
:101714004CC022F04DC023F04EC024F04FC025F041
:10172400A3EC09F01CC040F01DC041F0EBEF0BF03E
:1017340042C0D9FF43C0DAFFDECFF6FFDDCFF7FFAB
:101744000800F550250AD8A4AAEF0BF0ACEF0BF073
:10175400C3EF0BF042C0D9FF43C0DAFFDE2A000E0C
:10176400DD22000E026E250E016E40C003F041C062
:1017740004F039EC0FF0000E416E010E406EEBEFF9
:101784000BF042C0D9FF43C0DAFFDE2A000EDD228F
:10179400000E416E000E406EEBEF0BF042C0D9FF1D
:1017A40043C0DAFFDECFF6FFDDCFF7FF0800F550C8
:1017B400016E026A40C003F041C004F039EC0FF03E
:1017C40042C0D9FF43C0DAFFDE2A000EDD22BDEF9E
:1017D4000BF01200000E126E10BEF5EF0BF0F3EFDB
:1017E4000BF007EF0CF0101E0F1E0E1E0D1E0C1E2C
:1017F4000B1E0A1E096C000E0A220B220C220D225B
:101804000E220F221022010E126E08BE0EEF0CF0F3
:101814000CEF0CF020EF0CF0081E071E061E051E30
:10182400041E031E021E016C000E02220322042267
:101834000522062207220822010E121A20EE13F0B6
:10184400070EDE6AE806FDE209500A100B100C10C0
:101854000D100E100F101010D8B433EF0CF035EF3C
:101864000CF087EF0CF0010E116E43EF0CF0D890E2
:1018740009360A360B360C360D360E360F36103650
:10188400112A10AE48EF0CF04AEF0CF039EF0CF0CF
:10189400D8901336143615361636173618361936C8
:1018A4001A360950015C0A5002580B5003580C5068
:1018B40004580D5005580E5006580F500758105034
:1018C4000858D8A068EF0CF06AEF0CF07BEF0CF02E
:1018D4000950015E0A50025A0B50035A0C50045A24
:1018E4000D50055A0E50065A0F50075A1050085AF8
:1018F4001380D89010320F320E320D320C320B326C
:101904000A320932112E4AEF0CF01250D8B48DEF7E
:101914000CF08FEF0CF09FEF0CF01A1E191E181E1E
:10192400171E161E151E141E136C000E14221522EB
:1019340016221722182219221A2213C001F014C0E9
:1019440002F015C003F016C004F017C005F018C06B
:1019540006F019C007F01AC008F01200000E126E4B
:1019640008BEB9EF0CF0B7EF0CF0CBEF0CF0081E8B
:10197400071E061E051E041E031E021E016C000E19
:101984000222032204220522062207220822010E33
:10199400126E10BED2EF0CF0D0EF0CF0E2EF0CF0B0
:1019A400101E0F1E0E1E0D1E0C1E0B1E0A1E096C91
:1019B400000E0A220B220C220D220E220F221022CC
:1019C40009500A100B100C100D100E100F101010EF
:1019D400D8B4EFEF0CF0F1EF0CF039EF0DF0010E8D
:1019E400116EFFEF0CF0D89009360A360B360C3620
:1019F4000D360E360F361036112A10AE04EF0DF0E8
:101A040006EF0DF0F5EF0CF00950015C0A50025896
:101A14000B5003580C5004580D5005580E500658DE
:101A24000F50075810500858D8A01BEF0DF01DEFA9
:101A34000DF02DEF0DF00950015E0A50025A0B50C3
:101A4400035A0C50045A0D50055A0E50065A0F50A2
:101A5400075A1050085AD89010320F320E320D32F5
:101A64000C320B320A320932112E06EF0DF01250ED
:101A7400D8B43FEF0DF041EF0DF051EF0DF0081E1B
:101A8400071E061E051E041E031E021E016C000E08
:101A9400022203220422052206220722082201C070
:101AA40001F002C002F003C003F004C004F005C05A
:101AB40005F006C006F007C007F008C008F01200E1
:101AC400C7EC11F06AEC11F0000E8A6EB60E00013C
:101AD400DE6F000EDF6F000EBCEC10F0C60E0001CE
:101AE400DE6F000EDF6F010EBCEC10F0BE0E0001C5
:101AF400DE6F000EDF6F020EBCEC10F0BE0E0001B4
:101B0400DE6F000EDF6F030EBCEC10F0A60E0001BA
:101B1400DE6F000EDF6F040EBCEC10F0020E00014D
:101B2400DE6F030ECCEC0FF0000EFCEC10F0030E95
:101B34000001DE6F030ECCEC0FF0010EFCEC10F094
:101B4400020E0001DE6F0E0ECCEC0FF0020EFCEC68
:101B540010F0030E0001DE6F0E0ECCEC0FF0030E3E
:101B6400FCEC10F0020E0001DE6F090ECCEC0FF05D
:101B7400040EFCEC10F021EE7EF0090EDE6AE8069D
:101B8400FDE293809388938A938C938EF286F290ED
:101B9400F288F292F28EF28CF28AC70ED56E0001B0
:101BA400E605D8A4D8EF0DF0DAEF0DF0D1EF0DF083
:101BB400000E9DEC0EF0000E0001E66FD1EF0DF06B
:101BC40007EF00F078A0E9EF0DF0EBEF0DF0F5EF83
:101BD4000DF013C00AF014C00BF011C00CF012C0C9
:101BE4000DF09AEC10F016BEFAEF0DF0FCEF0DF0CC
:101BF40002EF0EF015C01AF016C01BF006EF0EF03F
:101C0400000E1B6E000E1A6E000E196E000E186E7A
:101C140018EF0EF0000E026E200E016E11C003F0DC
:101C240012C004F039EC0FF0184A192A1A50185C43
:101C34001950800A176E1B50800A1758D8A025EF38
:101C44000EF027EF0EF00CEF0EF078B02CEF0EF044
:101C54002EEF0EF038EF0EF013C00AF014C00BF0A4
:101C640011C00CF012C00DF09AEC10F013C001F08A
:101C740014C002F04FEC11F01A500124116E1B50E5
:101C84000220126E1200000E066E02BE4EEF0EF01F
:101C94004CEF0EF054EF0EF0016C021ED8B0022A85
:101CA400010E066E04BE5BEF0EF059EF0EF05FEF0F
:101CB4000EF0036C041ED8B0042A03500410D8B4E8
:101CC40066EF0EF068EF0EF08CEF0EF0010E056E6D
:101CD40070EF0EF0D89003360436052A04AE75EF83
:101CE4000EF077EF0EF06CEF0EF00350015C045031
:101CF4000258D8A080EF0EF082EF0EF086EF0EF0BF
:101D04000350015E0450025AD89004320332052E67
:101D140077EF0EF00650D8B492EF0EF094EF0EF079
:101D240098EF0EF0016C021ED8B0022A01C001F037
:101D340002C002F012000001E06FE0C0DEF0010E0C
:101D44000001DE17DE47DE47C250DE19FB0BDE1949
:101D5400C26EE0C0DEF0D890DE33010EDE17DE473F
:101D6400DE47DE47C250DE19F70BDE19C26EE0C053
:101D7400DEF0D890DE33D890DE33010EDE17DE3B82
:101D8400C250DE19EF0BDE19C26EE0C0DEF0D8904F
:101D9400DE33D890DE33D890DE33010EDE17DE3B1F
:101DA400DE47C250DE19DF0BDE19C26EC282C2B238
:101DB400DEEF0EF0E0EF0EF0D9EF0EF09E9CC45073
:101DC4000001DF6FDE6BC350DE25DC6F000EDF2108
:101DD400DD6F1200010E586E100E596E66C05AF077
:101DE40067C05BF068C05CF069C05DF06AC05EF01B
:101DF4006BC05FF06CC060F06DC061F0B4EC11F0CA
:101E0400E70E036E000E046E6E5018EC11F068C0FD
:101E140003F0665008EC10F06E5083EC11F06FBEC6
:101E24001DEF0FF06F5009E1020E6E5CD8A01DEF9C
:101E34000FF01FEF0FF025EF0FF0AE0E706E000ED7
:101E4400716E29EF0FF0B60E706E000E716E70C0D9
:101E540003F071C004F06E5018EC11F06CC003F084
:101E64006A5008EC10F06E5083EC11F0120003502D
:101E74000410D8B440EF0FF042EF0FF04BEF0FF027
:101E840003500410D8A449EF0FF04BEF0FF050EFBC
:101E94000FF00150E7EC11F083EF0FF020EE04F0A7
:101EA4000350D9260450DA22DE50DE10D8B45DEF98
:101EB4000FF05FEF0FF07AEF0FF020EE04F0035015
:101EC400D9260450DA2210EE02F00350E126045021
:101ED400E222DE50E65CE650800A096EDE50800A9B
:101EE4000958D8B078EF0FF07AEF0FF083EF0FF0C6
:101EF40020EE02F00350D9260450DA22DE2A000E26
:101F0400DD221200B20EF66E230EF76E000EF86E8E
:101F140001EE66F010EE18F00900F5CFEEFFE55083
:101F2400E150FAE1E60EF66E200EF76E000EF86E42
:101F340000EE80F010EE4EF00900F5CFEEFFE55014
:101F4400E150FAE1CA0EF66E230EF76E000EF86E3B
:101F54000900F5CF7CF00900F5CF7DF00900F5CF3D
:101F64007EF001EE00F0660EEE6AE806FDE100EE9A
:101F7400E2F00D0EEE6AE806FDE17B6A7A6A796AA0
:101F8400786A776A766A7F907F92000EF86E000115
:101F940062EF0DF00001DF6F0001DE05D8A4D5EF7C
:101FA4000FF0D7EF0FF0DEEF0FF0DF050F0B800F10
:101FB40034EC11F003EF10F0020EDE19D8A4E5EFB3
:101FC4000FF0E7EF0FF0EEEF0FF0DF050F0BC00F90
:101FD40034EC11F003EF10F0030EDE19D8A4F5EF82
:101FE4000FF0F7EF0FF0FEEF0FF0DF050F0B900F80
:101FF40034EC11F003EF10F0DF050F0BD00F34ECCD
:1020040011F0DFC07EF0DEC07DF01200046E030428
:10201400D8A40FEF10F011EF10F018EF10F0040433
:102024000F0B800F9CEC11F03DEF10F0020E031823
:10203400D8A41FEF10F021EF10F028EF10F00404E3
:102044000F0BC00F9CEC11F03DEF10F0030E0318C2
:10205400D8A42FEF10F031EF10F038EF10F0040493
:102064000F0B900F9CEC11F03DEF10F004040F0BDC
:10207400D00F9CEC11F004C07EF003C07DF0120080
:1020840052C056F053C057F0000E0001E36F000E2B
:10209400E26F60EF10F050C040F051C041F0560EB6
:1020A400426E000E436E54C044F055C045F012EC2D
:1020B4000BF040500001E2274150E32356C0F6FFE5
:1020C40057C0F7FF0800F5500009D8A46CEF10F0D2
:1020D4006EEF10F04DEF10F0E2C050F0E3C051F09D
:1020E400120004000200030003000E0002000E00B0
:1020F40003000900020000000000000000003F0689
:102104005B4F666D7D077F6F0E1F1F1F0E00000063
:1021140011150A040E1F0A1F11150A0404040A1FCC
:1021240011150A040E1F0A0A11150A0404040A0AE6
:10213400000E106E000E0F6EABEF10F00EC001F02B
:10214400026A0CC003F00DC004F039EC0FF00F4A22
:10215400102A0F500A24D96E10500B20DA6EDF506B
:102164000E6E0E50D8A4B9EF10F0BBEF10F0A0EF34
:1021740010F012000001E06F0001E051080DF3506F
:10218400400F34EC11F0000E0001E16FE151DE2547
:10219400D96E000EDF21DA6EDF50FCEC10F0000186
:1021A400E12B070EE165D9EF10F0DBEF10F0C8EF7B
:1021B40010F0120014BEE9EF10F0145006E11304FD
:1021C400D8B0E7EF10F0E9EF10F0F7EF10F013C01C
:1021D40015F014C016F0151E161E154A162A15C041
:1021E40013F016C014F0FBEF10F013C013F014C07A
:1021F40014F012000001DD6F84928484DDC083FF3B
:1022040084821A0E0001DC6FF80EE82EFED7DC2F54
:10221400FCD700F084921A0E0001DC6FF80EE82E51
:10222400FED7DC2FFCD700F084941200056E055015
:10223400080DF350400F9CEC11F0000E066E065092
:102244000324D96E000E0420DA6EDF5083EC11F003
:10225400062A070E066431EF11F033EF11F021EF77
:1022640011F012000001DD6F84928494DDC083FFBD
:1022740084821A0E0001DC6FF80EE82EFED7DC2FE4
:10228400FCD700F084921A0E0001DC6FF80EE82EE1
:10229400FED7DC2FFCD700F0120001C003F002C00F
:1022A40004F057EF11F0014A022A01C0D9FF02C01D
:1022B400DAFFDF50D8A461EF11F063EF11F055EFAE
:1022C40011F00350015C016E04500258026E1200BA
:1022D40096929694000E956E84928494380E34EC03
:1022E40011F0080E34EC11F00C0E34EC11F0060E63
:1022F40034EC11F0010E34EC11F0800E34EC11F0DA
:102304001200026E8492848402C083FF84821A0EB7
:10231400016EF80EE82EFED7012EFCD700D0849271
:102324001A0E016EF80EE82EFED7012EFCD700D04F
:1023340084941200026E8492849402C083FF848287
:102344001A0E016EF80EE82EFED7012EFCD700D02F
:1023540084921A0E016EF80EE82EFED7012EFCD7D9
:1023640000D012005A0E646E000E656E000E506EA0
:10237400000E516E58C052F059C053F0640E546EA2
:10238400000E556E42EC10F01200C186C184C19259
:10239400C190C198C19A928092829294C094C08252
:1023A400C090C09AC088C096C08EC28012000E1120
:1023B40011110E0000001F150A040E1F0A1F1F151D
:0923C4000A0404040A1F4001018F
:0223CE001200FB
:020000040020DA
:08000000FFFFFFFFFFFFFFFF00
:020000040030CA
:0E000000FF081F1EFF8381FF0FC00FE00F409F
:00000001FF
