:020000040000FA
:0400000007EF00F016
:0A0008007482BEED0AF0C7EF0DF0A0
:101000000020000081CF63F00D0E5B6EFC0EE82E19
:10101000FED75B2EFCD7010E5B6E000E5C6ED89087
:101020001534D96E1634DA6ED890D936DA365B506C
:10103000D9265C50DA22DECF5FF0DDCF60F0010E02
:101040005B6E000E5C6E020E5B26000E5C22D8907A
:101050001534D96E1634DA6ED890D936DA365B503C
:10106000D9265C50DA22DECF61F0DDCF62F071A8C4
:101070003CEF08F03EEF08F094EF08F063B843EF60
:1010800008F045EF08F094EF08F0010E5B6E000EDB
:101090005C6E020E5B26000E5C22D8901534D96E71
:1010A0001634DA6ED890D936DA365B50D9265C50D1
:1010B000DA22DE04DE10D8A460EF08F062EF08F058
:1010C00064EF08F0F3EF09F05FC048F060C049F04A
:1010D000FF0E61244A6EFF0E62204B6EF5EC0BF0A2
:1010E00048504910D8B477EF08F079EF08F07BEF5B
:1010F00008F0F3EF09F0010E5B6E000E5C6E020E5D
:101100005B26000E5C22D8901534D96E1634DA6E48
:10111000D890D936DA365B50D9265C50DA22DE0612
:10112000000EDD5A9DEF09F071AC99EF08F09BEFCE
:1011300008F0F2EF08F063BCA0EF08F0A2EF08F0AF
:10114000F2EF08F0010E5B6E000E5C6E020E5B2685
:10115000000E5C22D8901534D96E1634DA6ED89011
:10116000D936DA365B50D9265C50DA22040EDE1806
:10117000DE10D8A4BEEF08F0C0EF08F0C2EF08F010
:10118000F3EF09F05FC048F060C049F0010E612440
:101190004A6E000E62204B6EF5EC0BF04850491081
:1011A000D8B4D5EF08F0D7EF08F0D9EF08F0F3EF97
:1011B00009F0010E5B6E000E5C6E020E5B26000EE7
:1011C0005C22D8901534D96E1634DA6ED890D936A0
:1011D000DA365B50D9265C50DA22DE2A000EDD2298
:1011E0009DEF09F071AEF7EF08F0F9EF08F047EF67
:1011F00009F063BEFEEF08F000EF09F047EF09F0D9
:10120000010E5B6E000E5C6ED8901534D96E1634EC
:10121000DA6ED890D936DA365B50D9265C50DA22AD
:10122000DE04DE10D8A417EF09F019EF09F01BEF68
:1012300009F0F3EF09F0FF0E5F24486EFF0E602007
:10124000496E61C04AF062C04BF0F5EC0BF04850BB
:101250004910D8B42EEF09F030EF09F032EF09F061
:10126000F3EF09F0010E5B6E000E5C6ED890153442
:10127000D96E1634DA6ED890D936DA365B50D92664
:101280005C50DA22DE06000EDD5A9DEF09F071AAED
:101290004CEF09F04EEF09F09DEF09F063BA53EF00
:1012A00009F055EF09F09DEF09F0010E5B6E000E9D
:1012B0005C6ED8901534D96E1634DA6ED890D93663
:1012C000DA365B50D9265C50DA22100EDE18DE10BA
:1012D000D8A46DEF09F06FEF09F071EF09F0F3EFAB
:1012E00009F0010E5F24486E000E6020496E61C057
:1012F0004AF062C04BF0F5EC0BF048504910D8B4FE
:1013000084EF09F086EF09F088EF09F0F3EF09F0B8
:10131000010E5B6E000E5C6ED8901534D96E1634DB
:10132000DA6ED890D936DA365B50D9265C50DA229C
:10133000DE2A000EDD229DEF09F063C071F05FC070
:101340004FF060C050F061C051F062C052F0010E29
:101350005B6E000E5C6ED8901534D96E1634DA6E62
:10136000D890D936DA365B50D9265C50DA22DECFF7
:1013700053F0DDCF54F0010E5D6E000E5E6E020E76
:101380005D26000E5E22D8901534D96E1634DA6EC2
:10139000D890D936DA365D50D9265E50DA22DECFC3
:1013A00055F0DDCF56F015C057F016C058F02EECB2
:1013B0000EF050EC0CF048504910D8B4E2EF09F0B0
:1013C000E4EF09F0E6EF09F059EC0DF099EC0BF0C1
:1013D00048504910D8B4EFEF09F0F1EF09F0F3EFFE
:1013E00009F00FEC0FF012008150000E8A6E000E13
:1013F000896E000E8C6E15C05DF016C05EF0010E99
:101400004F6E000E506ED8905D34D96E5E34DA6E39
:10141000D890D936DA364F50D9265050DA22DECF5E
:1014200055F0DDCF56F0010E4F6E000E506E020EDD
:101430004F26000E5022D8905D34D96E5E34DA6E9D
:10144000D890D936DA364F50D9265050DA22DECF2E
:1014500057F0DDCF58F057C04AF055501FEC0DF053
:10146000010E4A6E100E4B6EA3EC0CF057C04AF002
:1014700055501FEC0DF05EBE47EF0AF05E5009E1DB
:10148000020E5D5CD8A047EF0AF049EF0AF04FEF7B
:101490000AF0000E526E030E516E53EF0AF0000E6A
:1014A000526E010E516E51505FEC0FF0010E5D2433
:1014B0004F6E000E5E20506E030E4F145D6E5E6A1E
:1014C0005DC015F05EC016F0010E4F6E000E506E3E
:1014D000D8905D34D96E5E34DA6ED890D936DA366B
:1014E0004F50D9265050DA22DECF59F0DDCF5AF0D6
:1014F000010E4F6E000E506E020E4F26000E50224F
:10150000D8905D34D96E5E34DA6ED890D936DA363A
:101510004F50D9265050DA22DECF5BF0DDCF5CF0A1
:101520005BC04AF059501FEC0DF0010E4A6E100ED0
:101530004B6EA3EC0CF05BC04AF059501FEC0DF061
:101540005EBEACEF0AF05E5009E1020E5D5CD8A011
:10155000ACEF0AF0AEEF0AF0B4EF0AF0000E546EF2
:10156000020E536EB8EF0AF0000E546E000E536E6A
:1015700053505FEC0FF0000E8A6E12000600D9CFB8
:1015800066F0DACF67F0F6CF68F0F7CF69F0F8CF02
:101590006AF0F5CF6BF0F2A4D0EF0AF0D2EF0AF0C8
:1015A000D7EF0AF0F294F40ED76E930ED66EF2A235
:1015B000DCEF0AF0DEEF0AF0ECEF0AF0F2926E5088
:1015C0006F10D8A4E6EF0AF0E8EF0AF0EAEF0AF0AD
:1015D00025EF0BF0C1EC0FF0F0A0F1EF0AF0F3EF04
:1015E0000AF012EF0BF0030E656E8A0E646E560E53
:1015F000E82EFED7642EFCD7652EFAD7F090000EA9
:101600004E6E090E4D6E5CEC0EF01B501C10D8A4F3
:101610000CEF0BF00EEF0BF010EF0BF025EF0BF0D3
:10162000F4EC09F0F2A017EF0BF019EF0BF01DEF3F
:101630000BF08150F29002EC08F09EA022EF0BF02C
:1016400024EF0BF025EF0BF09E906BC0F5FF6AC006
:10165000F8FF69C0F7FF68C0F6FF67C0DAFF66C031
:10166000D9FF74921100300E0001E86F000EE96F8F
:10167000000ED3EC0EF0400E0001E86F000EE96F93
:10168000010ED3EC0EF0280E0001E86F000EE96F9A
:10169000020ED3EC0EF0380E0001E86F000EE96F79
:1016A000030ED3EC0EF0D60E0001E86F000EE96FCA
:1016B000040ED3EC0EF0200E0001E86F000EE96F6F
:1016C000050ED3EC0EF0DE0E0001E86F000EE96FA0
:1016D000060ED3EC0EF0020E0001E86F030EE3ECF1
:1016E0000CF0000EF3EC0EF0030E0001E86F030E99
:1016F000E3EC0CF0010EF3EC0EF0020E0001E86FCB
:101700000E0EE3EC0CF0030EF3EC0EF0030E0001F2
:10171000E86F0E0EE3EC0CF0030EF3EC0EF0020E8D
:101720000001E86F090EE3EC0CF0040EF3EC0EF090
:1017300012006E506F10D8A4A0EF0BF0A2EF0BF0C8
:10174000A8EF0BF0000E496E000E486EF4EF0BF0A0
:1017500015C04EF016C04FF0010E4A6E000E4B6ED3
:10176000D8904E34D96E4F34DA6ED890D936DA36F6
:101770004A50D9264B50DA221150DE1807E1125098
:10178000DE18D8A4C6EF0BF0C8EF0BF0E8EF0BF0B3
:10179000010E4A6E000E4B6E020E4A26000E4B22C0
:1017A000D8904E34D96E4F34DA6ED890D936DA36B6
:1017B0004A50D9264B50DA221350DE1809E1145052
:1017C000DE18D8B4E6EF0BF0E8EF0BF0A2EF0BF069
:1017D000000E1C6E010E1B6E000E6F6E000E6E6E04
:1017E000000E496E010E486E1200000E516E000E82
:1017F000506E010E4C6E000E4D6ED8905034D96E66
:101800005134DA6ED890D936DA364C50D9264D504C
:10181000DA224850DE1807E14950DE18D8A413EF49
:101820000CF015EF0CF03BEF0CF0010E4C6E000EBF
:101830004D6E020E4C26000E4D22D8905034D96EBB
:101840005134DA6ED890D936DA364C50D9264D500C
:10185000DA224A50DE1807E14B50DE18D8A433EFE5
:101860000CF035EF0CF03BEF0CF0000E496E010E62
:10187000486E4FEF0CF0504A512A51BE49EF0CF020
:10188000515009E1040E505CD8A049EF0CF04BEF29
:101890000CF0F9EF0BF0000E496E000E486E1200CE
:1018A00015C04EF016C04FF0010E4A6E000E4B6E82
:1018B000D8904E34D96E4F34DA6ED890D936DA36A5
:1018C0004A50D9264B50DA22DE50111807E1DE507B
:1018D0001218D8A46EEF0CF070EF0CF09EEF0CF025
:1018E000010E4A6E000E4B6E020E4A26000E4B226F
:1018F000D8904E34D96E4F34DA6ED890D936DA3665
:101900004A50D9264B50DA22DE50131807E1DE5038
:101910001418D8A48EEF0CF090EF0CF09EEF0CF0A2
:10192000000E1C6E000E1B6E000E6F6E010E6E6EB2
:10193000000E496E010E486EA2EF0CF0000E496ECB
:10194000000E486E1200000E4E6ECEEF0CF04E50A0
:101950004A244C6E000E4B204D6E4CC0F6FF4DC01D
:10196000F7FF0800F5505FEC0FF01F2A110E1F184B
:10197000D8A4BDEF0CF0BFEF0CF0CDEF0CF0010ED2
:101980001F6E1E2A050E1E18D8A4C9EF0CF0CBEF4F
:101990000CF0CDEF0CF0010E1E6E4E2A4E504A2474
:1019A0004C6E000E4B204D6E4CC0F6FF4DC0F7FF45
:1019B0000800F5500009D8A4E0EF0CF0E2EF0CF0BD
:1019C000A7EF0CF012000001E96F0001E805D8A4B0
:1019D000ECEF0CF0EEEF0CF0F5EF0CF0E9050F0B6F
:1019E000800F2BEC0FF01AEF0DF0020EE819D8A4BF
:1019F000FCEF0CF0FEEF0CF005EF0DF0E9050F0B1E
:101A0000C00F2BEC0FF01AEF0DF0030EE819D8A45D
:101A10000CEF0DF00EEF0DF015EF0DF0E9050F0BCB
:101A2000900F2BEC0FF01AEF0DF0E9050F0BD00F14
:101A30002BEC0FF0E9C01FF0E8C01EF012004B6E57
:101A40004A04D8A426EF0DF028EF0DF02FEF0DF08B
:101A50004B040F0B800F78EC0FF054EF0DF0020EDB
:101A60004A18D8A436EF0DF038EF0DF03FEF0DF027
:101A70004B040F0BC00F78EC0FF054EF0DF0030E7A
:101A80004A18D8A446EF0DF048EF0DF04FEF0DF0D7
:101A90004B040F0B900F78EC0FF054EF0DF04B044C
:101AA0000F0BD00F78EC0FF04BC01FF04AC01EF0A8
:101AB000120011C053F012C054F013C055F014C0FE
:101AC00056F015C04FF016C050F055C04AF05350B4
:101AD0001FEC0DF0010E4A6E100E4B6EA3EC0CF0D5
:101AE00055C04AF053501FEC0DF050BE81EF0DF081
:101AF000505009E1020E4F5CD8A081EF0DF083EF4A
:101B00000DF089EF0DF0000E526E060E516E8DEF46
:101B10000DF0000E526E050E516E51505FEC0FF03D
:101B20001200000E926E080E896EC40E1724D96E34
:101B3000000E1820DA6EDF508C6E0D0E0001E66F7D
:101B4000FB0EE82EFED7E62FFCD700D0100E896ED4
:101B5000400E8C6E0D0E0001E66FFB0EE82EFED7D8
:101B6000E62FFCD700D0200E896EC40E1924D96E42
:101B7000000E1A20DA6EDF508C6E0D0E0001E66F3B
:101B8000FB0EE82EFED7E62FFCD700D01200440E45
:101B9000F66E1F0EF76E000EF86E00EEC4F010EE3B
:101BA00022F00900F5CFEEFFE550E150FAE15E0EBC
:101BB000F66E1D0EF76E000EF86E00EE01F010EEE0
:101BC00047F00900F5CFEEFFE550E150FAE100EEF5
:101BD00080F0440EEE6AE806FDE100EE6CF0080EBF
:101BE000EE6AE806FDE174907492000EF86E100E35
:101BF000F76E0001B3EF0FF04A504B10D8B403EF6B
:101C00000EF005EF0EF029EF0EF0010E4C6E0DEF09
:101C10000EF0D8904A364B364C2A4BAE12EF0EF0EF
:101C200014EF0EF009EF0EF04A50485C4B50495843
:101C3000D8A01DEF0EF01FEF0EF023EF0EF04A506C
:101C4000485E4B50495AD8904B324A324C2E14EFD2
:101C50000EF048C048F049C049F01200000E896EED
:101C600051C04AF04F501FEC0DF0010E4A6E100E9D
:101C70004B6EA3EC0CF055C04AF053501FEC0DF026
:101C800058BE4CEF0EF0585009E1020E575CD8A038
:101C90004CEF0EF04EEF0EF054EF0EF0000E5A6EB9
:101CA000020E596E58EF0EF0000E5A6E000E596E6D
:101CB00059505FEC0FF01200CECF57F0CFCF58F055
:101CC00057C048F058C049F04DC04AF04EC04BF0E4
:101CD000FCEC0DF0010E4824536E000E4920546EAA
:101CE00057C04FF058C050F0503450324F3250343B
:101CF00050324F324FC055F050C056F055C0CEFF55
:101D000056C0CFFF53C04DF054C04EF01200000E2D
:101D1000936E938093829388938A938C938E000E14
:101D20008A6EF290F286000E8A6EF288F292000EAF
:101D30008A6EF086F090F28EF28CF28A870ED56E63
:101D4000F40ED76E930ED66E000ECD6E000ECF6ED3
:101D5000000ECE6ECD80000E8A6E81501200030000
:101D60000200030003000E0002000E000300090041
:101D7000020000000000000000004001011F150AE1
:101D80000404040A1F11150A040E1F0A1F11150A64
:101D90000404040A1F11150A040E1F0A0A11150A69
:051DA0000404040A0A1E
:101DA6000001EA6F0001EA51080DF350400F2BECD9
:101DB6000FF0000E0001EB6FEB51E825D96E000E17
:101DC600E921DA6EDF50F3EC0EF00001EB2B070E83
:101DD600EB65F0EF0EF0F2EF0EF0DFEF0EF0120013
:101DE6000001E76F84928484E7C083FF84821A0E21
:101DF6000001E66FF80EE82EFED7E62FFCD700F0BE
:101E060084921A0E0001E66FF80EE82EFED7E62F32
:101E1600FCD700F08494120011C051F012C052F0A9
:101E260013C053F014C054F053C04AF051501FEC85
:101E36000DF0010E4A6E100E4B6EA3EC0CF053C063
:101E46004AF051501FEC0DF0040E5FEC0FF012003B
:101E56000001E76F84928494E7C083FF84821A0EA0
:101E66000001E66FF80EE82EFED7E62FFCD700F04D
:101E760084921A0E0001E66FF80EE82EFED7E62FC2
:101E8600FCD700F0120096929694000E956E8492FE
:101E96008494380E2BEC0FF0080E2BEC0FF00C0E82
:101EA6002BEC0FF0060E2BEC0FF0010E2BEC0FF0C7
:101EB600800E2BEC0FF01200496E8492848449C088
:101EC60083FF84821A0E486EF80EE82EFED7482E3F
:101ED600FCD700D084921A0E486EF80EE82EFED774
:101EE600482EFCD700D084941200496E84928494C4
:101EF60049C083FF84821A0E486EF80EE82EFED77C
:101F0600482EFCD700D084921A0E486EF80EE82EA2
:101F1600FED7482EFCD700D01200C186C184C192DC
:101F2600C190C198C19A928092829294C094C082C4
:101F3600C090C09AC088C096C08EC28012003F066C
:101F46005B4F666D7D077F6F0E1111110E0000004D
:101F56000E1F1F1F0E0000001F150A040E1F0A1F6A
:101F660090EC0FF046EC0FF087EC0EF033EC0BF034
:101F760091EC0DF0BBEF0FF007EF00F0000E1C6EBA
:061F8600010E1B6E1200AB
:020000040020DA
:08000000FFFFFFFFFFFFFFFF00
:020000040030CA
:0E000000FF081F1EFF8181FF0FC00FE00F40A1
:00000001FF
